:100000000C9492060C94D9060C94D9060C94D9063B
:100010000C94D9060C94D9060C94D9060C94D906E4
:100020000C94D9060C94D9060C9439270C940C28FE
:100030000C94441E0C94D9060C94D9060C94D90641
:100040000C94D9060C94D9060C94D9060C94D906B4
:100050000C94D9060C94A51E0C94D9060C94D906C0
:100060000C94D9060C94D9060C94D9060C94D90694
:100070000C94D9060C94D9060C94D9060C94D90684
:100080000C94D9060C94D9060C94D9060C94D90674
:100090000C94D9060C94D9060C94D9060C94D90664
:1000A0000C94D9060C94D9060C94D90629001E008C
:1000B0001F0020002100220023002400250026002C
:1000C00027002D002E002A002B0014001A00080023
:1000D000150017001C0018000C00120013002F0060
:1000E00030003100390004001600070009000A0042
:1000F0000B000D000E000F0033003400280000003C
:10010000E10000001D001B000600190005001100A1
:100110001000360037003800E5000000E000E30082
:10012000E2000000000000002C00000000000000C1
:10013000E600E7000151E40035003A003B003C00D6
:100140003D003E003F0040004100420043004400AB
:10015000450000702B001400520008001500170025
:100160001C0018000C00120013002F003000367025
:100170003900500051004F0009000A000B000D002B
:100180000E000F00330034003A700000E100000060
:100190001D001B00060019000500110010003600AC
:1001A0003700380038700000E000E300E200000093
:1001B000000000003570000000000000E600E700CD
:1001C0000052347001000100010001000100010033
:1001D0000100010001000100010001000100010017
:1001E0000100010001000100010001000100010007
:1001F00001000100010001000100010001000100F7
:1002000001000100010001000100010001000100E6
:1002100001000100010000000100000001000100D8
:1002200001000100010001000100010001000100C6
:1002300001000000010001000100000000000000BA
:1002400001000000000000000100010001000100A9
:100250000100010001000100010001000100010096
:100260000100010001000100010001000100010086
:100270000100010001000100010001000100010076
:100280000100010001000100010001000100010066
:100290000100010001000100010001000100010056
:1002A0000100000001000000010001000100010048
:1002B0000100010001000100010001000100000037
:1002C000010001000100000000000000010000002A
:1002D0000000000001000100010001000100010018
:1002E0000100010001000100010001000100010006
:1002F00001000100010001000100010001000100F6
:1003000001000100010001000100010001000100E5
:1003100001000100010001000100010001000100D5
:1003200001000100010001000100010001000000C6
:1003300001000000010001000100010001000100B6
:1003400001000100010001000100000001000100A6
:10035000010000000000000001000000000000009B
:100360000100010001000100010001000100010085
:100370000100010001000100010001000100010075
:100380000100010001000100010001000100010065
:100390000100010001000100010001000100010055
:1003A0000100010001000100010001000100010045
:1003B0000100010001000100010000000100000037
:1003C0000100010001000100010001000100010025
:1003D0000100010001000000010001000100000017
:1003E000000000000100000000000000010001000A
:1003F00001000100010001000100010001000100F5
:1004000001000100010001000100010001000100E4
:1004100001000100010001000100010001000100D4
:1004200001000100010001000100010001000100C4
:1004300001000100010001000100010001000100B4
:1004400001000100010000000100000001000100A6
:100450000100010001000100010001000100010094
:100460000100000001000100010000000000000088
:100470000100000000000000010001000100010077
:100480000100010001000100010001000100010064
:100490000100010001000100010001000100010054
:1004A0000100010001000100010001000100010044
:1004B0000100010001000100010001000100010034
:1004C0000100010001000100010001000100010024
:1004D0000100000001000000010001000100010016
:1004E0000100010001000100010001000100000005
:1004F00001000100010000000000000001000000F8
:1005000000000000010001000100010001000100E5
:1005100001000100010001000100010001000100D3
:1005200001000100010001000100010001000100C3
:1005300001000100010001000100010001000100B3
:1005400001000100010001000100010001000100A3
:100550000100010001000100010001000100000094
:100560000100000001000100010001000100010084
:100570000100010001000100010000000100010074
:100580000100000000000000010000000000000069
:100590000100010001000100010001000100010053
:1005A0000100010001000100010001000100010043
:1005B0000100010001000100010001000100010033
:1005C0000100010001000100010001000100010023
:1005D0000100010001000100010001000100010013
:1005E0000100010001000100010000000100000005
:1005F00001000100010001000100010001000100F3
:1006000001000100010000000100010001000000E4
:1006100000000000010000000000000001000100D7
:1006200001000100010001000100010001000100C2
:1006300001000100010001000100010001000100B2
:1006400001000100010001000100010001000100A2
:100650000100010001000100010001000100010092
:100660000100010001000100010001000100010082
:100670000100010001000000010000000100010074
:100680000100010001000100010001000100010062
:100690000100000001000100010000000000000056
:1006A0000100000000000000010001000100010045
:1006B0000100010001000100010001000100010032
:1006C0000100010001000100010001000100010022
:1006D0000100010001000100010001000100010012
:1006E0000100010001000100010001000100010002
:1006F00001000100010001000100010001000100F2
:1007000001000000010000000100010001000100E3
:1007100001000100010001000100010001000000D2
:1007200001000100010000000000000001000000C5
:1007300000000000010001000100010001000100B3
:1007400001000100010001000100010001000100A1
:100750000100010001000100010001000100010091
:100760000100010001000100010001000100010081
:100770000100010001000100010001000100010071
:100780000100010001000100010001000100000062
:100790000100000001000100010001000100010052
:1007A0000100010001000100010000000100010042
:1007B0000100000000000000010000000000000037
:1007C0000100010001000100010001000100010021
:1007D0000100010001000100010001000100010011
:1007E0000100010001000100010001000100010001
:1007F00001000100010001000100010001000100F1
:1008000001000100010001000100010001000100E0
:1008100001000100010001000100000001000000D2
:1008200001000100010001000100010001000100C0
:1008300001000100010000000100010001000000B2
:1008400000000000010000000000000001000100A5
:100850000100010001000100010001000100010090
:100860000100010001000100010001000100010080
:100870000100010001000100010001000100010070
:100880000100010001000100010001000100010060
:100890000100010001000100010001000100010050
:1008A0000100010001000000010000000100010042
:1008B0000100010001000100010001000100010030
:1008C0000100000001000100010000000000000024
:1008D0000100000000000000010001000100010013
:1008E0000100010001000100010001000100010000
:1008F00001000100010001000100010001000100F0
:1009000001000100010001000100010001000100DF
:1009100001000100010001000100010001000100CF
:1009200001000100010001000100010001000100BF
:1009300001000000010000000100010001000100B1
:1009400001000100010001000100010001000000A0
:100950000100010001000000000000000100000093
:100960000000000001000100010001006432146475
:100970003214783C1E1E140A05000000000101011B
:100980000202030405050607090A0B0C0E0F1112DB
:10099000141517191B1D1F212325282A2C2F31342C
:1009A00036393B3E414346494C4F5255585A5D619A
:1009B00064676A6D707376797C7F8386898C8F9289
:1009C00095989B9EA2A5A7AAADB0B3B6B9BCBEC16F
:1009D000C4C6C9CBCED0D3D5D7DADCDEE0E2E4E6BC
:1009E000E8EAEBEDEEF0F1F3F4F5F6F8F9FAFAFBDC
:1009F000FCFDFDFEFEFEFFFFFFFFFFFFFFFEFEFE14
:100A0000FDFDFCFBFAFAF9F8F6F5F4F3F1F0EEED82
:100A1000EBEAE8E6E4E2E0DEDCDAD7D5D3D0CECB11
:100A2000C9C6C4C1BEBCB9B6B3B0ADAAA7A5A29E83
:100A30009B9895928F8C898683807C797673706D74
:100A40006A6764615D5A5855524F4C494643413E6E
:100A50003B393634312F2C2A282523211F1D1B1901
:100A600017151412110F0E0C0B0A090706050504C1
:100A7000030202010101000000000000000001016A
:100A8000010101010101010202020202020202024D
:100A9000030303030303030304040404040405051C
:100AA00005050506060606060707070708080808DD
:100AB0000909090A0A0A0A0B0B0B0C0C0C0D0D0D87
:100AC0000E0E0F0F0F101011111112121313141418
:100AD000151516161717181819191A1A1B1C1C1D8C
:100AE0001D1E1F1F202021222223242525262727E3
:100AF00028292A2B2B2C2D2E2F2F30313233343511
:100B000036363738393A3B3C3D3E3F40414243441C
:100B1000464748494A4B4C4D4F50515253555657F2
:100B2000585A5B5C5E5F606263646667696A6C6D9D
:100B30006E707173747678797B7C7E808183848615
:100B4000888A8B8D8F91929496989A9B9D9FA1A352
:100B5000A5A7A9ABADAFB1B3B5B7B9BBBDBFC1C454
:100B6000C6C8CACCCFD1D3D6D8DADCDFE1E4E6E818
:100B7000EBEDF0F2F5F7FAFCFF12036B006500797C
:100B80000062006F006100720064000000160371D3
:100B9000006D006B006200750069006C0064006508
:100BA00000720000000403090409026D0004010042
:100BB000A0FA09040000010301010009211101004C
:100BC000012240000705810308000A090401000111
:100BD00003010200092111010001224D00070582D5
:100BE0000308000A090402000103000000092111A2
:100BF0000100012236000705830308000A090403E7
:100C00000001030000000921110100012239000741
:100C10000584032000011201100100000008EDFE10
:100C2000606001000102000105010906A10105073C
:100C300019E029E7150025019508750181020508CD
:100C40001901290595057501910295017503910119
:100C50000507190029F71500250195F8750181028E
:100C6000C005010980A10185021601002603001AB2
:100C700081002A8300751095018100C0050C0901CF
:100C8000A1018503160100269C021A01002A9C027C
:100C9000751095018100C005010902A1010901A19A
:100CA0000005091901290515002501950575018122
:100CB000029501750381010501093009311581256E
:100CC0007F95027508810609381581257F95017584
:100CD000088106050C0A38021581257F95017508E3
:100CE0008106C0C005010906A101050719E029E731
:100CF000150025019508750181029501750881018E
:100D000005081901290595057501910295017503DD
:100D100091010507190029FF150026FF00950675AA
:100D2000088100C011241FBECFEFDAE0DEBFCDBFC7
:100D300004B603FE27C08091980290919902A09179
:100D40009A02B0919B028730904BA740B04BD1F4F0
:100D5000109298021092990210929A0210929B029D
:100D600014BE84B7877F84BF0FB6F894A89580918E
:100D70006000886180936000109260000FBEE0E028
:100D8000F8E3099511E0A0E0B1E0E8E2F7E502C080
:100D900005900D92AC33B107D9F722E0ACE3B1E096
:100DA00001C01D92A839B207E1F70E948D240C946E
:100DB0005D2B0C94000090E080E008950895089564
:100DC00081E00895089581E008950C94E0060E9462
:100DD0008E162FEF84E39CE0215080409040E1F795
:100DE00000C000000C94C81EEF92FF920F931F9357
:100DF000CF93DF937C01DC010D911C9111978091C1
:100E00008D01811143C012968C918823D1F1C801C4
:100E10000E94131CC82F682FC8010E94BC1BB80178
:100E20008C2F0E945F08EC01B7010E94E506882321
:100E300009F468C0B701CE010E94680A882309F44A
:100E400061C0CE33B0E7DB0770F4C433E0E7DE0700
:100E500010F5C130F0E7DF0709F45CC050F5C115AB
:100E6000D04709F44AC081E080933E0180933F015E
:100E7000C701DF91CF911F910F91FF90EF900C94DC
:100E8000E306C8010E94EA1BC82FC9CFC8010E940F
:100E9000131CB801C6CFFE01E553F047D7011296E7
:100EA0008C91E930F10508F040C0E15AF44D0C9402
:100EB0000F2BCE01825090474397A8F6F70182810D
:100EC0008823B1F20E94D51D811102C00E94B41D79
:100ED0000E94F21D90E090938A0280938902FE01A5
:100EE000E350F047809189028160E231F10508F01A
:100EF00047C0E859F44D0C940F2BF7018281811102
:100F00000E94E70680E0DF91CF911F910F91FF9043
:100F1000EF900895D70112968C91882399F38091D0
:100F20002002816080932002EDCF882359F30E9434
:100F3000F00EE8CF882331F30E94E60EE3CF88233A
:100F400009F30E94C30DDECF8823E1F20E94DB0D7E
:100F5000D9CF8823B9F20E94FA0DD4CF882391F219
:100F60000E94120ECFCF882369F20E942A0ECACFA8
:100F7000882341F20E94420EC5CF8091890282608F
:100F800080938902809189020E94F61D0E948E162C
:100F9000B9CF809189028460F3CF80918902886003
:100FA000EFCF809189028061EBCF809189028062CE
:100FB000E7CF809189028064E3CF809189028068C5
:100FC000DFCF809189028C60DBCF809189028E7F98
:100FD000D7CF809189028D7FD3CF809189028B7F7B
:100FE000CFCF80918902877FCBCF809189028F7E7E
:100FF000C7CF809189028F7DC3CF809189028F7B7B
:10100000BFCF809189028F77BBCF80918902837F88
:10101000B7CF90918902892F97FB87F98058B0CF7D
:10102000882361F010923E010E94741E90933D014E
:1010300080933C0182E00E94F31364CF80913E01D3
:1010400081110FC080913C0190913D010E94801E52
:10105000883C910530F486E20E94C81286E20E9424
:10106000A41382E00E94FA134DCF882351F010920E
:101070003F010E94741E90933D0180933C0180E2E9
:10108000DACF80913F0181110FC080913C01909196
:101090003D010E94801E883C910530F487E20E9449
:1010A000C81287E20E94A41380E2DCCF0C94B70A36
:1010B0000C94B90A0C94E2060C945A080895972FE0
:1010C00070E02EE0929F600D711D1124FB0196E4EB
:1010D000899FE00DF11D1124EE0FFF1FE455FF4F16
:1010E000859194910895FC01EE0FFF1FE459F64F8E
:1010F0008591949108950E945F080E94EC099C01DB
:10110000811540E4940708F097C0211580E3380763
:1011100008F0FAC0203E310508F074C0203C3105CB
:1011200008F0E5C0283A310588F4253A310508F081
:10113000E2C02130310509F477C0C9010497813A32
:10114000910508F471C030E020E06EC0C901885AF2
:1011500091094597C0F7283A310509F4FEC0293AAC
:10116000310509F4FDC02A3A310509F4FCC02B3AD7
:10117000310509F4FBC02C3A310509F4FAC02B3BC8
:10118000310509F4F9C02C3B310509F4F8C02D3ABA
:10119000310509F4F7C0203B310509F4F6C02E3AB9
:1011A000310509F4F5C02F3A310509F4F4C0213BAB
:1011B000310509F4F3C0223B310509F4F2C0233BA9
:1011C000310509F4F1C0243B310509F4F0C0253B99
:1011D000310509F4EFC0263B310509F4EEC0273B89
:1011E000310509F4EDC0283B310509F4ECC0293B79
:1011F000310509F4EBC02A3B310509F4EAC020E0CF
:1012000034E412C0211590E2390780F42F3F3105F4
:1012100009F050F4283E310538F0C901805F91098A
:101220003065409708F08FCFC9010895C9019F70BC
:101230000E9473089C01F8CF8115944508F041C0C5
:10124000211583E5380708F06AC0211592E53907B2
:1012500038F5211541E5340708F05CC0211580E51B
:10126000380708F454C0C90134E0969587953A953B
:10127000E1F78370422F46954695437090E2499F6F
:10128000A0011124582B822F837021E030E002C08E
:10129000220F331F8A95E2F7242B352B3C68C4CFED
:1012A000C9018370992741E050E002C0440F551FE7
:1012B0008A95E2F72695269580E2289F90011124D1
:1012C000EBCF211596E5390748F4922F8827211591
:1012D0003545C8F59C01246F306AA6CFC9019056E8
:1012E0003F708115904108F02ECF30629DCFC9012B
:1012F000805C91099DCF253A310549F1263A3105A7
:1013000049F522E830E490CF3327306C8DCF3F7021
:10131000306A8ACF322F2227216F306A85CFC901E8
:101320008370992741E050E002C0440F551F8A9511
:10133000E2F72695269580E2289F90011124242B20
:10134000352B3A6871CF88279F719C01CECF21E859
:1013500030E46ACF23E830E467CF22EE34E464CF90
:1013600029EE34E461CF2AEE34E45ECF25EB34E499
:101370005BCF26EB34E458CF23EB34E455CF24EB9A
:1013800034E452CF27EB34E44FCF2CEC34E44CCF91
:101390002DEC34E449CF23E835E446CF2AE835E4A0
:1013A00043CF22E935E440CF24E935E43DCF21E2C3
:1013B00036E43ACF23E236E437CF24E236E434CFC2
:1013C00025E236E431CF26E236E42ECF27E236E4BA
:1013D0002BCF2AE236E428CF803E910581F1C8F474
:1013E0008133910509F462C048F48932910509F40A
:1013F00056C08A32910509F460C008958933910579
:10140000B9F082389105A1F08533910509F440C007
:101410000895863E910561F138F4823E9105B1F060
:10142000833E9105E1F00895873E910551F10895BD
:10143000209189022370D9F080EE90E008952091E8
:10144000890220FF14C089E390E008952091890269
:1014500022FF0DC024FD09C083EE90E00895209185
:10146000890222FD31C024FF02C090E080E008958F
:101470002091890223FFFBCF24FDF7CF87EE90E078
:1014800008952091890223FFEECF86EE90E0089523
:101490002091890225FFEBCF89E290E00895209109
:1014A000890225FFE4CF85E390E008952091890229
:1014B00026FFDDCF8AE290E008952091890226FF81
:1014C000D6CF81E390E0089582EE90E008950895EC
:1014D0000F931F93CF938C01FB018281811106C072
:1014E000C1E08C2FCF911F910F910895C0914D01B4
:1014F000C11125C00531104799F70E94670A81E0A4
:1015000080934D010E94741E90934C0180934B0177
:101510001092400110924201109241011092440138
:101520001092430110924601109245011092480119
:101530001092470110924A0110924901D2CF809136
:101540004B0190914C010E94801E883C910540F611
:1015500080914001E82FF0E0EE0FFF1FEF5BFE4FA0
:10156000118300838F5F80934001C0E0BACF0C9459
:10157000DE060C94DF06CF93DF9385B7806885BFC6
:1015800085B7806885BFA2E2B1E047E251E0C1E0E3
:10159000D0E08D91E82FE295EF70F0E061A18F70BF
:1015A0009E0101C0220F8A95EAF7922F909596230B
:1015B00091A382A1822B82A34A175B0751F7A4E172
:1015C000B1E061E070E08D91E82FE295EF70F0E01E
:1015D00041A18F709B0101C0220F8A95EAF7922FDB
:1015E0009095942391A382A1822B82A381E0A232C1
:1015F000B80749F7109259011092580110924F0103
:1016000010924E0110925B0110925A0110925101FA
:101610001092500110925D0110925C0110925301E2
:101620001092520110925F0110925E0110925501CA
:1016300010925401109261011092600110925701B2
:1016400010925601DF91CF910C9456084F925F9201
:101650007F928F929F92AF92BF92CF92DF92EF9242
:10166000FF920F931F93CF93DF939EE4492E91E057
:10167000592E22E2E22E21E0F22E01E010E0992420
:101680009394E201A990B9902E01DE011E921E9260
:10169000F70181917F01E82FE295EF70F0E091A1D1
:1016A0008F70980101C0220F8A95EAF7892F822B4B
:1016B00081A382A1822E8094882182A380EA8A95C8
:1016C000F1F784E1C82E81E0D82E90E080E0E601B9
:1016D00079916E01472F42954F7050E0EA0178A052
:1016E0004D915C9111977F70E80102C0CC0FDD1F16
:1016F0007A95E2F7BE01672109F072C0B801082EA1
:1017000002C0660F771F0A94E2F7462B572B1196FB
:101710005C934E9301968E309105C9F681A1882283
:1017200081A282A1282B22A38D919C91A816B90693
:1017300041F0909262010E94741E90936401809324
:101740006301D8E54D16D1E05D0609F09ACF80918E
:101750006201882391F180916301909164010E945C
:10176000801E069750F180914E0190914F01909309
:1017700059018093580180915001909151019093AB
:101780005B0180935A018091520190915301909393
:101790005D0180935C01809154019091550190937B
:1017A0005F0180935E018091560190915701909363
:1017B000610180936001109262010E94580881E0EB
:1017C000DF91CF911F910F91FF90EF90DF90CF901D
:1017D000BF90AF909F908F907F905F904F900895B3
:1017E00070E060E092CFE82FF0E0EE0FFF1FE85AC4
:1017F000FE4F80819181089508959C01CB0161B3D2
:10180000542F5095562361B3462B6FB7F894820F2F
:10181000931F2817390711F46FBF0895F9017191CB
:101820009F01E8E041BB000000C077FF51BB770F8C
:10183000000000C000C000C051BB00C0EA9591F795
:10184000E8CFFC0190B3942B90BB9B01220F331F78
:10185000620F731FCF010E94FD0B87EC90E0019790
:10186000F1F700C00000089541E00C94210CAF9204
:10187000BF92CF92DF92EF92FF920F931F93CF937D
:10188000DF937C01E901842F242F662309F43FC0F4
:10189000C42ED12C8FEF90E0861B9109489F8001C8
:1018A000499F100D1124212F812F9927C81AD90A79
:1018B0009CE3A92EB12CC701B5010E94E72AFB01C8
:1018C000BC01C69EC001C79E900DD69E900D1124EE
:1018D000B5010E94E72AE330F10509F443C080EF27
:1018E000E816F10468F4E130F10591F13297A1F1C5
:1018F0008CE3E816F10440F180E020E040E007C00E
:10190000E430F10599F1842F861B3597A9F7E42F70
:10191000F0E0E758F54F4491E22FF0E0E758F54F3B
:101920009491E82FF0E0E758F54FE49149839883CC
:10193000EA83DF91CF911F910F91FF90EF90DF909D
:10194000CF90BF90AF900895812F262F210FDFCF2A
:10195000812F242F461BDBCF862F810FE42F412FB1
:101960002E2FD5CFE42FE61B842FF9CF842F462FBF
:10197000410FCDCF88E090E00C941D2BAB01BC0152
:1019800088E090E00C943B2BCF93DF9300D000D005
:10199000CDB7DEB7EDE4F2E083E0808311828FEF14
:1019A0008283838380914D0290914E02A0914F02D9
:1019B000B091500289839A83AB83BC83BC01CD0173
:1019C0000F900F900F900F90DF91CF910C94BE0C61
:1019D00080914D02E5E5F2E080FF06C060E170E035
:1019E00085E592E00C94340C1182108212823396B9
:1019F00082E0E538F807C1F7F1CFE5E5F2E0818351
:101A000060834283339692E0E538F907C1F70C947E
:101A1000E80CEF92FF920F931F93CF93DF9300D0C8
:101A20000F92CDB7DEB7182FE92EF62E042F809136
:101A30004D0290914E02A0914F02B09150028093BE
:101A4000510290935202A0935302B093540280919A
:101A50004D0280FF1FC09E012F5F3F4F812F9E2DA3
:101A60000E94370C8091510210FB87F9809351023C
:101A70001695809152028078182BE0FA17F910938E
:101A80005202F0925302009354024B8169818A8181
:101A90000E94FD0C0F900F900F90DF91CF911F913E
:101AA0000F91FF90EF9008950F931F93CF93DF93C3
:101AB00000D000D00F92CDB7DEB789839D83062F6B
:101AC000142F80914D0280FF54C0982F9E77923042
:101AD00091F589819D810E94090D80914D02B98106
:101AE000B0FB87F980934D02B69580914E028078C5
:101AF000B82B8D8180FBB7F9B0934E0200934F0253
:101B00001093500280914D0290914E02A0914F028D
:101B1000B091500289839A83AB83BC83BC01CD0111
:101B20000F900F900F900F900F90DF91CF911F911A
:101B30000F910C94BE0C982F96959F732EE3290F4E
:101B40002F73243018F410915002C7CF965C9F7306
:101B5000993018F6881F8827881F90914E029D8320
:101B6000990F982B9983AD81A7FBAA27A0F9AD8384
:101B7000B4CF0F900F900F900F900F90DF91CF91F7
:101B80001F910F910895EDE4F2E02081221F22279A
:101B9000221F30914E02432F440F842F822B37FB9C
:101BA000992790F9089668E671E00E94FB2A438124
:101BB00062810C94540D20914D02221F2227221F76
:101BC00030914E02432F440F842F822B37FB9927ED
:101BD00090F98830910540F4805A9E4F4091500210
:101BE00060914F020C94540D089768E671E00E94D2
:101BF000FB2AF4CF60914F02683F90F4685F8091B8
:101C00004D02881F8827881F90914E02292F220F8E
:101C100097FB992790F940915002822B0C94540D18
:101C20006FEFEDCF60914F02683090F06850809177
:101C30004D02881F8827881F90914E02292F220F5E
:101C400097FB992790F940915002822B0C94540DE8
:101C500060E0EDCF40915002483F90F4485F8091A2
:101C60004D02881F8827881F90914E02292F220F2E
:101C700097FB992790F960914F02822B0C94540D99
:101C80004FEFEDCF40915002483090F04850809196
:101C90004D02881F8827881F90914E02292F220FFE
:101CA00097FB992790F960914F02822B0C94540D69
:101CB00040E0EDCFCF93DF9300D000D0CDB7DEB7BB
:101CC00090914D0290FF47C09178811132C092608F
:101CD00090934D0280914D0290914E02A0914F023F
:101CE000B091500289839A83AB83BC83BC01CD0140
:101CF0000E94BE0C80914D02982F9E77923009F57C
:101D000010927A01881F8827881F90914E02292FF0
:101D1000220F97FB992790F94091500260914F0252
:101D2000822B0F900F900F900F90DF91CF910C941A
:101D3000540D893110F09063CBCF8F73880F982B9F
:101D4000C7CF982F9695925C9F739631D8F691E005
:101D500090937A01D7CF0F900F900F900F90DF9153
:101D6000CF9108958091200281608093200281E0CC
:101D700080937B010E94D51D811104C00E94B41D77
:101D80000E94C40C0E94BA0C60934D0270934E02E4
:101D900080934F02909350026E7761F40E94C40CBE
:101DA0000E94BA0C60934D0270934E0280934F02D2
:101DB0009093500281E080937A0180914D0280FFE0
:101DC00004C086958F730C945A0E089580914D022D
:101DD00086958F738F5F893108F081E00C945A0EDD
:101DE000CF93DF9300D000D0CDB7DEB790914D02F6
:101DF000892F8E7F90FF816080934D0280914D02EC
:101E000090914E02A0914F02B091500289839A8323
:101E1000AB83BC83BC01CD010E94BE0C80914D02FE
:101E200080FF0AC086958F730F900F900F900F90D0
:101E3000DF91CF910C945A0E10927A019FEFA0E798
:101E4000B2E09150A040B040E1F700C000000F9018
:101E50000F900F900F90DF91CF910C94E80CCF93DF
:101E6000C82F80917801909179010E94801EEC2FFB
:101E7000F0E0EB58F64FE491E817190609F010F579
:101E80000E94741E9093790180937801E09177010C
:101E9000F0E0E758F64F449180914D02881F882763
:101EA000881F90914E02292F220F97FB992790F9B6
:101EB00060914F02822B0E94090D809177018F5F04
:101EC00080937701CF910895CF93C82F80917501AA
:101ED000909176010E94801EEC2FF0E0EE58F64FB4
:101EE000E491E817190609F0E8F40E94741E909333
:101EF0007601809375014091500260914F0280916C
:101F00007301909174010E94090D80917301909169
:101F10007401019668E671E00E94E72A90937401CB
:101F200080937301CF910895CF92DF92EF92FF9249
:101F30000F931F93CF93C82F8091710190917201DD
:101F40000E94801EEC2FE695F0E0EE58F64FE491EB
:101F5000E817190609F0C8F50E94741E90937201E3
:101F60008093710185E5E82E82E0F82E10E000E014
:101F700098E6C92EDD24D39480916F019091700171
:101F8000800F911FB6010E94E72A970140915002ED
:101F900060914F020E94370C0A5E1F4F83E0E80EEB
:101FA000F11C003681E0180739F70E94E80C809197
:101FB0006F0190917001C0FF10C00196B6010E94A0
:101FC000E72A9093700180936F01CF911F910F9139
:101FD000FF90EF90DF90CF9008950197F2CFAF92EE
:101FE000BF92CF92DF92EF92FF920F931F93CF9306
:101FF000DF93C82FDD24DA9480FD02C0DD24D39462
:1020000080916D0190916E010E94801EC695EC2F0B
:10201000F0E0E159F64FE491E817190611F008F0E5
:1020200053C00E94741E90936E0180936D01C5E5AC
:10203000D2E010E000E097E0A92EB12C19821882BE
:102040001A8287E0E82EF12CC12C80916C018C0D56
:1020500087FD805F082E000C990B80179107E9F42B
:10206000209150022E9DC0012F9D900D1124B5018D
:102070000E94FB2A462F80914D02881F8827881FC7
:1020800090914E02592F550F97FB992790F99E0179
:1020900060914F02852B0E94370CCD0C81E0E81A2D
:1020A000F10899F60F5F1F4F23960031110531F6A5
:1020B0000E94E80C80916C0191E0D91212C081114C
:1020C0000EC08FE080936C01DF91CF911F910F9133
:1020D000FF90EF90DF90CF90BF90AF900895815028
:1020E000F1CF90E001968F709927ECCFBF92CF92FD
:1020F000DF92EF92FF920F931F93CF93DF93CDB7B1
:10210000DEB7E0970FB6F894DEBF0FBECDBF182F35
:1021100080916A0190916B010E94801EE12FF0E096
:10212000E459F64FE491E817190611F008F071C070
:102130000E94741E90936B0180936A018E010F5F61
:102140001F4FF12CE12C6801F801118210821282DC
:10215000B12C9091000180916901B99E800D1124EC
:1021600080310CF08FE087FD80E0082E000C990B89
:102170008E159F05A1F480914D02881F8827881F26
:1021800090914E02592F550F97FB992790F998017E
:102190004091500260914F02852B0E94370CB394FE
:1021A000F7E0BF12D6CF8FEFE81AF80A0D5F1F4F86
:1021B000E0E1EE16F10441F6A5E5B2E089E090E039
:1021C0009C012F703327F901EE0FFF1FE20FF31F61
:1021D000EC0DFD1D218111962C93119720812C93DC
:1021E000228112962C9312970196139689319105AC
:1021F00039F70E94E80C90910001809169019130BB
:10220000E1F48A3FB4F489EF809369018FEF809302
:102210000001E0960FB6F894DEBF0FBECDBFDF9190
:10222000CF911F910F91FF90EF90DF90CF90BF90D3
:102230000895815080936901ECCF87312CF086E1BD
:102240008093690181E0E3CF8F5FF4CFCF93DF9379
:1022500080916701909168010E94801E883E9340A2
:1022600028F10E94741E9093680180936701809109
:10227000650190916601019681709927909366019E
:1022800080936501C5E5D2E09E01409150026091C6
:102290004F0290E080E00E94370C239682E0C53820
:1022A000D80791F7DF91CF910C94E80CDF91CF9193
:1022B000089580917A01882371F180914D0286956D
:1022C0008F739EE3980F9F73943018F482500C9490
:1022D0002F0F9AE3980F9F73933018F486500C9445
:1022E000640F97E3980F9F73963018F489500C94FD
:1022F000940F91E3980F9F73963018F48F500C94BD
:10230000EF0F9BE2980F9F73933018F485510C9454
:1023100076100C942611089590938101809380018A
:102320000895E0918001F0918101309721F00190B2
:10233000F081E02D099480E00895E0918001F09112
:102340008101309721F00280F381E02D09940895F6
:10235000E0918001F0918101309721F00480F581B6
:10236000E02D0994089520917E0130917F01281776
:10237000390771F090937F0180937E01E091800195
:10238000F0918101309721F00680F781E02D0994CA
:10239000089520917C0130917D012817390771F053
:1023A00090937D0180937C01E0918001F091810107
:1023B000309721F00084F185E02D09940895089567
:1023C0000C94DF110E946B1E0E94BB0A0E94351FF5
:1023D0000C94B20E5F926F927F928F929F92AF9207
:1023E000BF92CF92DF92EF92FF920F931F93CF9302
:1023F000DF9300D000D00F92CDB7DEB70E94260B3E
:1024000093E8A92E91E0B92E10E000E0882483948F
:10241000912C502E802F0E94F30B7C01F501C1906E
:10242000D1905F01C816D90609F45DC080912002E1
:1024300081FD0E94FC0B90E080E0CE24DF2434017B
:10244000082E02C0660C771C0A94E2F7960126213A
:102450003721232B09F442C089835A82E620F720D2
:1024600081E0EF2809F480E08B830E94741E816074
:10247000782F9D838C8349815A816B818D810E9445
:102480009F12000F111FF801ED57FE4F80819181BF
:1024900068267926718260820E94E2210E94911151
:1024A000909182018917B1F10E949111809382016C
:1024B0000F900F900F900F900F90DF91CF911F9181
:1024C0000F91FF90EF90DF90CF90BF90AF909F90D3
:1024D0008F907F906F905F900C945C0801968E3087
:1024E000910509F0ACCF0F5F1F4F0530110509F0C2
:1024F00090CF8FEF89838A831B820E94741E816034
:10250000782F9D838C8349815A816B818D810E94B4
:102510009F12C2CF0F900F900F900F900F90DF91EE
:10252000CF911F910F91FF90EF90DF90CF90BF90D0
:10253000AF909F908F907F906F905F900895CF9312
:10254000DF93CDB7DEB72B970FB6F894DEBF0FBE83
:10255000CDBF4F83588769877A878B871E8285E036
:10256000FE013796DE01119601900D928A95E1F7F2
:1025700049815A816B817C818D819E812B960FB61A
:10258000F894DEBF0FBECDBFDF91CF910C9416192A
:10259000882309F4D8C0823871F40E94911181FD1A
:1025A000D2C089E30E94BB1C0E94851D89E30E9462
:1025B000F81C0C94851D833859F40E94911180FDFC
:1025C000C2C083E50E94BB1C0E94851D83E5EFCF3E
:1025D000843859F40E94911182FDB5C087E40E94AD
:1025E000BB1C0E94851D87E4E2CF9CEF980F913AB7
:1025F00018F40E94BB1CDDCF90E2980F983050F485
:10260000877091E001C0990F8A95EAF7892F0E949F
:102610003C1DCFCF9BE5980F933070F4853A31F095
:10262000863A39F083E890E00C94B31181E890E0A9
:10263000FBCF82E890E0F8CF98E5980F953108F04D
:1026400082C0883A09F440C0893A09F440C08A3A05
:1026500009F440C08B3A09F440C08C3A09F440C0F8
:102660008B3B09F440C08C3B09F440C08D3A09F41F
:1026700040C0803B09F440C08E3A09F440C08F3A14
:1026800009F440C0813B09F440C0823B09F440C0DA
:10269000833B09F440C0843B09F440C0853B09F406
:1026A00040C0863B09F440C0873B09F440C0883BEA
:1026B00009F440C0893B09F440C08A3B09F440C09A
:1026C00090E080E00C94C91182EE90E0FBCF89EE9F
:1026D00090E0F8CF8AEE90E0F5CF85EB90E0F2CF76
:1026E00086EB90E0EFCF83EB90E0ECCF84EB90E0D3
:1026F000E9CF87EB90E0E6CF8CEC90E0E3CF8DEC78
:1027000090E0E0CF83E891E0DDCF8AE891E0DACF96
:1027100082E991E0D7CF84E991E0D4CF81E292E0E1
:10272000D1CF83E292E0CECF84E292E0CBCF85E2BC
:1027300092E0C8CF86E292E0C5CF87E292E0C2CFB6
:102740008AE292E0BFCF0895882309F44BC0823813
:1027500071F40E94911181FF45C089E30E94BB1C66
:102760000E94851D89E30E94F81C0C94851D833806
:1027700059F40E94911180FF35C083E50E94BB1C73
:102780000E94851D83E5EFCF843859F40E94911192
:1027900082FF28C087E40E94BB1C0E94851D87E43D
:1027A000E2CF9CEF980F913AF0F290E2980F9830B8
:1027B00050F4877091E001C0990F8A95EAF7892F4C
:1027C0000E94421DD2CF9BE5980F933020F490E0F9
:1027D00080E00C94B311885A853120F490E080E0B9
:1027E0000C94C9110895882321F00E943C1D0C947B
:1027F000851D0895882321F00E94421D0C94851D9B
:1028000008958F929F92AF92BF92DF92EF92FF92C4
:102810000F931F93CF93DF9300D000D00F92CDB7CB
:10282000DEB77C016D837983FC01058102950F7011
:10283000128111110E945B1D0E94B41CD82E8823A6
:1028400071F01123A1F08D81805E883080F082E0EC
:102850000E949E1C0E94B41C91E0D82ED926E981CA
:10286000E295EF70F0E0E658F44D0C940F2BD12C6C
:10287000F6CF09810F70F981F07F11F00295007F8A
:102880001123B1F0002361F08D81805E883018F053
:102890002D81211109C0802F0E943C1D0E94851DA1
:1028A0008D810E94C81215C0802F0E944D1DF6CF49
:1028B0008D810E94A413002361F08D81805E883099
:1028C00018F03D81311129C0802F0E94421D0E94C5
:1028D000851DDD2009F4D3C10E94911C80FDCFC16C
:1028E000F70112820E948B1C0E94D41AC7010E9419
:1028F00050160E948B1C0F900F900F900F900F900E
:10290000DF91CF911F910F91FF90EF90DF90BF90DB
:10291000AF909F908F900C94F61A802F0E94531DB9
:10292000D6CF49814F70B42E5981507F503219F063
:10293000B29480EFB8228D81882369F0813029F12B
:10294000112369F1002359F0F701858180FFA8CF99
:102950008F70858304C0112361F0011104C08B2D99
:102960000E94F313B6CF8B2D0130D1F70E946F1D5B
:10297000B0CF011106C00E94721D8B2D0E94FA1368
:10298000A8CF013009F4A5CFF6CF112321F00630EE
:1029900008F09FCFE4CF053008F09BCFEECF0023A7
:1029A00061F38D810E94A41394CF898186958695C9
:1029B000837069F0813009F08CCF8D81998193709B
:1029C000111102C090E080E00E94C91182CF8D8178
:1029D00099819370111102C090E080E00E94B311C0
:1029E00078CF8D81112329F00E94F0200E94D721F9
:1029F00070CF0E945821FACF8981837009F05FC09F
:102A0000111167CF2D81229526952770220F220F55
:102A10008D818F7090E0B0E0A0E04C015D01022E4E
:102A200004C0880C991CAA1CBB1C0A94D2F7FD8117
:102A300060E070E0CB01F4FF0FC06FE070E080E079
:102A400090E004C0660F771F881F991F2A95D2F760
:102A5000609570958095909529812695269523708F
:102A60002D832230B1F0233019F19B01AC012829CC
:102A700039294A295B2929833A834B835C833D8129
:102A800069817A818B819C813130B1F00E94611A19
:102A900020CF9B01AC01282939294A295B292983A8
:102AA0003A834B835C83CA01B9010E948B1A11CF10
:102AB0000E94611AC501B4010E94371A0ACF869597
:102AC000112311F089818170882309F402CF2D81AF
:102AD000229526952770220F220F8D818F7090E00E
:102AE000B0E0A0E04C015D01022E04C0880C991CEE
:102AF000AA1CBB1C0A94D2F73D8160E070E0CB01B8
:102B000034FF0FC06FE070E080E090E004C0660F1B
:102B1000771F881F991F2A95D2F760957095809529
:102B2000909549814695469543704D834230B1F06A
:102B3000433019F19B01AC01282939294A295B2925
:102B400029833A834B835C833D8169817A818B81C0
:102B50009C813130B1F00E94671BBBCE9B01AC0160
:102B6000282939294A295B2929833A834B835C83A5
:102B7000CA01B9010E94911BACCE0E94671BC5011E
:102B8000B4010E943D1BA5CE3D81323F09F447C0F0
:102B900080F4303F79F1313FD9F1832F805E80316D
:102BA000D0F0112309F456C001117ACE89818F71BA
:102BB00033C04D81433FD1F1443F99F7112309F4CC
:102BC0003FC089818F7189830E94D41A63E0898113
:102BD0000E94951C7ECE5D815F705D8389818F71BF
:102BE000112321F00E94D41A8D81BACE0E94F61AC8
:102BF0008D81C4CE112341F0053008F06ACE898161
:102C00008F710E941B1B65CE063008F062CEF7CF95
:102C100089818F71112339F00E94D41A5ACE89818B
:102C20008F711123C9F30E94F61A53CE112329F094
:102C300089818F710E94BF1A4CCE0E94B51A49CE6D
:102C400081E00E949E1C023008F443CE82E00E9484
:102C50009E1C3FCE0111A5CE89818F71E4CF4981A1
:102C60004F706D81C7010E94DB060E94B01931CE02
:102C700049814F706D81C7010E945E082ACE0F9076
:102C80000F900F900F900F90DF91CF911F910F91A8
:102C9000FF90EF90DF90BF90AF909F908F9008953E
:102CA0000F931F93CF93DF93EC018B819C81892B32
:102CB00029F08881998189238F3F29F4DF91CF9171
:102CC0001F910F910895CE010E94F4068823B1F35D
:102CD000688179818A810E94611C8C010E94BB1BE2
:102CE0000E942C1AB801CE01DF91CF911F910F9154
:102CF0000C9401140E945B1D0E946C1D0E942E1DED
:102D00000E94851D0E94C8220E94D72190E080E089
:102D10000E94B31190E080E00C94C9110E944A1DFA
:102D20000C947A160E94551C282F892F82958F703B
:102D3000903C80F48A30B0F4843020F4823090F4F7
:102D400080E008958630E1F781E0203E88F0213F61
:102D5000B9F70EC08C3011F08F3091F793FB8827B4
:102D600080F9089581E0203F39F018F4203E40F7C3
:102D70000895243F29F7FCCF0895CF93DF9300D027
:102D800000D00F92CDB7DEB70F900F900F900F903D
:102D90000F90DF91CF910895CF93DF9300D000D0B3
:102DA00000D0CDB7DEB726960FB6F894DEBF0FBEC3
:102DB000CDBFDF91CF9108951F93CF93DF93E09123
:102DC0008E0116E080918F018E1304C0DF91CF91A8
:102DD0001F910895CE2FD0E01E9FF0011124E057DF
:102DE000FE4F4081518162817381848195810E946F
:102DF000CC16FE013196E770E5CF4091C0015091AD
:102E0000C1016091C2017091C3018091C401909190
:102E1000C5010C94CC161F93CF93DF938091C5010D
:102E2000807FC1F48091C2018823A1F080918E013E
:102E3000C0918F016091C0017091C1014091C301A7
:102E40005091C401D62FD723DA01A095B09516E092
:102E5000C81304C0DF91CF911F91089590E04115F0
:102E6000510511F0DF3F31F401968770F1CF2A0F41
:102E70003B1F17C0189FF001199FF00D1124E05758
:102E8000FE4F21812713F0CF20812613EDCF228121
:102E90002111EACF238134812417350740F3241B05
:102EA000350B283C310500F72091C5012F702061BA
:102EB0002093C50126E0289FF001299FF00D1124E1
:102EC000EB56FE4F80818F708061808380EC91E0B3
:102ED0000E945016DF91CF911F910C94DC169F92A7
:102EE000AF92BF92CF92DF92EF92FF920F931F9318
:102EF000CF93DF93CDB7DEB72B970FB6F894DEBF35
:102F00000FBECDBF8C0185E0F801DE011796019060
:102F10000D928A95E1F7D8014C9111965C91119729
:102F20001296EC9012978091C3019091C401009782
:102F300009F46BC12091C0013091C101632F62235C
:102F40006F3F09F462C11396CD90DC909090C2015E
:102F5000992009F4F8C0C816D90608F43FC0F60154
:102F6000E81BF90BCF01FF24F394883C910508F08E
:102F7000F12C80ECA82E81E0B82E8091C501982F0D
:102F8000907FFF2009F4B7C0911180C0FE2C35134B
:102F90002AC0241328C0E11026C08F70806180935E
:102FA000C5010E94FD16C5010E9450168091C50101
:102FB000D80115968C938F2D2B960FB6F894DEBF03
:102FC0000FBECDBFDF91CF911F910F91FF90EF907A
:102FD000DF90CF90BF90AF909F900895809590958F
:102FE0008C0D9D1DC0CFCD2829F0842F85238F3FC8
:102FF00009F019C180E0B82FB170DB2EE0918E018D
:1030000020918F0136E080FD1CC0EE20A1F280915E
:10301000C50181608093C501F12CCDCF8E2F90E04A
:103020003E9FF0011124E057FE4F6181651306C0F9
:103030006081641303C062816E11E7CFFC01319699
:10304000E770E213EBCF4F8358878F8198850E94FA
:10305000551C292F22952F70903260F0225F2F701F
:10306000223078F49F7051F0F8019581907F31F40F
:10307000D12C0AC09F7011F08823D1F3805E883074
:10308000B8F3C8010E945016FD2C95CF351306C029
:10309000241304C0D801EE2009F47BC04F83588765
:1030A0008F8198850E949216882309F4B8C0EE207B
:1030B00009F4B5C08091C501803270F02091C00143
:1030C0003091C1013A8329831B82DD82CC828E83B9
:1030D000CE0101960E94501686E0F801A0ECB1E006
:1030E00001900D928A95E1F70E940B170E94FD1640
:1030F000FF24F39460CF911113C07C2DDB86CA8628
:103100006E2D8B850E94BD1680EC91E00E945016BA
:1031100086E0F50111928A95E9F70E94FD164BCFE2
:103120003513BCCF2413BACFE110B8CFD801159610
:103130008C93C8010E94501686E0F50111928A9581
:10314000E9F7F92C38CFC816D90688F1B601681B03
:10315000790BCB01F12C883C910508F047C0FE2C7F
:10316000EE2009F45CC0351330C024132EC08091CA
:10317000C50180FD21C0982F907FF1F0D8011596F0
:103180008C931597903F39F0982F907F905F8F70B8
:10319000892B15968C93C8010E94501686E0F80181
:1031A000A0ECB1E001900D928A95E1F7B6CF809541
:1031B00090958C0D9D1DCECF86E0F801A0ECB1E07E
:1031C00001900D928A95E1F7F6CE4F8358878F8153
:1031D00098850E94921681117FCF8091C5018160F0
:1031E0008093C501C8010E945016E5CE7C2DDB8678
:1031F000CA866E2D8B850E94BD1686E0E0ECF1E05C
:10320000DF011D928A95E9F788CFEE2041F04F83C8
:1032100058878F8198850E94921681115DCFC801D1
:103220000E94501665CF81E08E25E5CE1F93CF9387
:10323000DF93CDB7DEB72C970FB6F894DEBF0FBE85
:10324000CDBF4F83588769877A878B879C87CE014C
:1032500007960E946F17882369F08A859B85892BC2
:1032600039F04F815885842F85238F3F09F071C035
:1032700016E05FC086E0FE013796DE0111960190F0
:103280000D928A95E1F78A859B85892B89F388853C
:103290009F8189238F3F61F320918F0130E0C90125
:1032A00001968770992740918E014817190671F48D
:1032B0000E948E1610928F0110928E0186E0E0EC33
:1032C000F1E0DF011D928A95E9F7D2CF96E0929F57
:1032D000D001939FB00D1124A057BE4FFE0131962F
:1032E00001900D929A95E1F780938F010E94DC1670
:1032F000BFCF819FC001112480579E4F0E946F173E
:103300008823E9F0E0918E011E9FF0011124E0571F
:10331000FE4F4081518162817381848195810E9439
:10332000CC1680918E0190E001968770992780934A
:103330008E0180918E0190918F018913DACF2C96A6
:103340000FB6F894DEBF0FBECDBFDF91CF911F91B6
:10335000089569857A858B859C850E94CC1688CFD7
:10336000EF92FF920F931F93CF93DF938C01892BE2
:1033700089F0F12CEE24E394E8012196F801849180
:10338000843709F457C0A0F4823009F43EC048F4F1
:103390008130D1F0DF91CF911F910F91FF90EF908D
:1033A00008959CEF980F9037A8F70E94C8120AC0A2
:1033B000853709F44CC09CE7980F903758F78F7702
:1033C0000E94A4138E0116C00E5F1F4FFE01849150
:1033D00090E2980F983060F48770FE2D01C0FF0FC7
:1033E0008A95EAF78F2F0E945E1D0E94851D02C0FC
:1033F0000E94C8128F2D815008F4BECFEFE9FFE084
:103400003197F1F700C00000F6CF0E5F1F4FFE01AD
:10341000849190E2980F983050F48770FE2D01C08F
:10342000FF0F8A95EAF78F2F0E94641DDECF0E945E
:10343000A413E0CF0E5F1F4FFE01C491C150D0F224
:103440008FE99FE00197F1F700C00000F7CF0E5F12
:103450001F4FFE01F490CECF08956093F701709353
:10346000F8018093F9019093FA010C947A16CF93A6
:10347000DF9300D000D0CDB7DEB769837A838B832A
:103480009C838091F7019091F801A091F901B0918E
:10349000FA0129813A814B815C81822B932BA42BE9
:1034A000B52B8093F7019093F801A093F901B093A5
:1034B000FA010F900F900F900F90DF91CF910C9425
:1034C0007A16CF93DF9300D000D0CDB7DEB76983F3
:1034D0007A838B839C838091F7019091F801A0916E
:1034E000F901B091FA0129813A814B815C818223F3
:1034F0009323A423B5238093F7019093F801A0931D
:10350000F901B093FA010F900F900F900F90DF9197
:10351000CF910C947A16CF93DF9300D000D0CDB723
:10352000DEB769837A838B839C838091F7019091C6
:10353000F801A091F901B091FA0129813A814B81FA
:103540005C8182279327A427B5278093F701909366
:10355000F801A093F901B093FA010F900F900F902A
:103560000F90DF91CF910C947A161092F301109284
:10357000F4011092F5011092F6010C947A1641E0D4
:1035800050E060E070E004C0440F551F661F771FD5
:103590008A95D2F74093F3015093F4016093F501BB
:1035A0007093F6010C947A16282F81E090E0A0E049
:1035B000B0E004C0880F991FAA1FBB1F2A95D2F73D
:1035C0004091F3015091F4016091F5017091F60181
:1035D000842B952BA62BB72B8093F3019093F401AA
:1035E000A093F501B093F6010C947A1641E050E0F7
:1035F00060E070E004C0440F551F661F771F8A9576
:10360000D2F740955095609570958091F301909117
:10361000F401A091F501B091F60184239523A6232E
:10362000B7238093F3019093F401A093F501B09335
:10363000F6010C947A16282F81E090E0A0E0B0E02B
:1036400004C0880F991FAA1FBB1F2A95D2F740916B
:10365000F3015091F4016091F5017091F601842716
:103660009527A627B7278093F3019093F401A093A1
:10367000F501B093F6010C947A16CF93DF9300D046
:1036800000D0CDB7DEB769837A838B839C8380912A
:10369000F3019091F401A091F501B091F601298117
:1036A0003A814B815C81822B932BA42BB52B809389
:1036B000F3019093F401A093F501B093F6010F90FC
:1036C0000F900F900F90DF91CF910C947A16CF93BB
:1036D000DF9300D000D0CDB7DEB769837A838B83C8
:1036E0009C838091F3019091F401A091F501B09138
:1036F000F60129813A814B815C8182239323A423A3
:10370000B5238093F3019093F401A093F501B09356
:10371000F6010F900F900F900F90DF91CF910C94C6
:103720007A16CF93DF9300D000D0CDB7DEB7698390
:103730007A838B839C838091F3019091F401A09113
:10374000F501B091F60129813A814B815C81822794
:103750009327A427B5278093F3019093F401A093B6
:10376000F501B093F6010F900F900F900F90DF913D
:10377000CF910C947A160895E82F2EE0929FE00DD9
:1037800011248E2F877041E001C0440F8A95EAF71B
:10379000E695E695E69585E0E89FF0011124EA5369
:1037A000FE4F30E020E070E05191DF011197CB0136
:1037B000022E02C0969587950A94E2F78170819552
:1037C0008527842385278C932F5F3F4F2530310534
:1037D00059F70895E82F2EE0929FE00D11249E2FB7
:1037E0009770E695E695E69585E0E89FF00111244F
:1037F000EA53FE4F50E040E080E0219130E0092E96
:1038000002C0369527950A94E2F721703327042EDB
:1038100001C0220F0A94EAF7822B4F5F5F4F4530B9
:10382000510559F70895BF92CF92DF92EF92FF9220
:103830000F931F93CF93DF938C01C090F301D0902F
:10384000F401E090F501F090F6018091F70190917C
:10385000F801A091F901B091FA01C82AD92AEA2AFF
:10386000FB2ACFE1D0E0BC2ED701C6010C2E04C04C
:10387000B695A795979587950A94D2F780FD0EC0C7
:10388000219788F7B12C8B2DDF91CF911F910F914C
:10389000FF90EF90DF90CF90BF900895B8018C2FEC
:1038A0000E947B08019761F3EECFCF93DF93D82F6F
:1038B000C92F0E94131C6D2F7C2FDF91CF910C9488
:1038C0007B081F93CF93DF93162FD72F90918D01F5
:1038D000992339F0862F972FDF91CF911F910C9468
:1038E000551C882391F0862F972F0E94131CC82FF8
:1038F000682F812F9D2F0E94BC1B612F7D2F8C2F45
:10390000DF91CF911F910C947B08862F972F0E94F7
:10391000EA1BC82FF2CF8091FB018595859585958F
:1039200008958091FB018770089598E0899F900128
:103930001124622B6093FB010C94D41A9091FB012B
:10394000809589238093FB01282F277061F4282F0D
:10395000082E000C330B9217130629F085958595D8
:1039600085950C94F61A08959091FB01977081E06B
:1039700009F480E00895909113019923E1F090916A
:10398000890297FF18C0E82FE695E695E695EF3196
:1039900039F12091010130910201E20FF32FF11D65
:1039A000877021E030E001C0220F8A95EAF781811B
:1039B000822B818308952091010130910201F90148
:1039C00032969FEF40E05191851751F09F3F19F4D7
:1039D000511101C0942F4F5F4E31A9F79F3F09F459
:1039E0000895290F311D97FD3A95F90182830895B5
:1039F00090911301992301F19091890297FF1CC0C6
:103A0000E82FE695E695E695EF3139F12091010131
:103A100030910201E20FF32FF11D877021E030E0B9
:103A2000A90102C0440F551F8A95E2F7CA0180958B
:103A300091818923818308952091010130910201B0
:103A4000F9013296205E3F4F9191891303C0DF0147
:103A500011971C92E217F307B9F7089581E090E0FF
:103A6000E0910101F0910201E80FF91F1082019627
:103A700080329105A9F7089590911F02982B909399
:103A80001F020895982F909580911F02892380939B
:103A90001F02089510921F02089590911E02982B04
:103AA00090931E020895982F909580911E0289236D
:103AB00080931E02089510921E02089590911D0297
:103AC000982B90931D020895982F909580911D0238
:103AD000892380931D02089510921D0208958093FA
:103AE000FC0108951092FC0108952091010130918C
:103AF0000201F9013196205E3F4F80E091919111D2
:103B00008F5FE217F307D1F70895E0910101F0917B
:103B1000020180911F028083E0910101F091020176
:103B2000808190911E02892B8083E0910101F091A8
:103B30000201808190911D02892B80839091FC016C
:103B4000992361F0E0910101F09102018081892BBC
:103B500080830E94751D81111092FC0180910101EA
:103B6000909102010C949D116DEE7EEF90E080E04B
:103B70000E94472B60E082E090E00E94292B60E0E9
:103B800083E090E00E94292B60E084E090E00E94B6
:103B9000292B60E085E090E00E94292B40E050E076
:103BA000BA0188E090E00C943B2B90E080E00E940A
:103BB000232B9C0181E02D3E3E4F09F080E00895CB
:103BC00082E090E00C94152B682F82E090E00C943A
:103BD000292B83E090E00C94152B682F83E090E074
:103BE0000C94292B84E090E00C94152B682F84E032
:103BF00090E00C94292B80918F02843039F110923F
:103C0000210288E190E020E40FB6F894A895809313
:103C100060000FBE2093600080E00E945C0883B7C4
:103C2000817F846083BF83B7816083BF78948895E8
:103C300083B78E7F83BF0FB6F894A89580916000FC
:103C4000886180936000109260000FBE089508950F
:103C50000895CF930E94271E0E94260B0E94281EC3
:103C6000C0E08C2F0E94F30B892B31F4CF5FC5305D
:103C7000C1F780E0CF91089581E0FCCF0E948E16BD
:103C80000E9491110C945C081F921FB61F92112480
:103C90008F939F93AF93BF9380912102811113C0A3
:103CA0008091850290918602A0918702B09188024E
:103CB0004196A11DB11D8093850290938602A09329
:103CC0008702B0938802BF91AF919F918F911F900F
:103CD0001FBE1F90189582E084BD93E095BD9AEFBA
:103CE00097BD80936E0008952FB7F8948091850258
:103CF00090918602A0918702B09188022FBF08950B
:103D0000CF92DF92EF92FF929C014FB7F89480918F
:103D1000850290918602A0918702B09188024FBFE0
:103D20006C017D01EE24FF24A90170E060E0C4165F
:103D3000D506E606F70638F0821B930BFF90EF904E
:103D4000DF90CF9008950197F7CF1F921FB61F9273
:103D500011248F939F93AF93BF938091850290918D
:103D60008602A0918702B09188020196A11DB11D23
:103D70008093850290938602A0938702B093880275
:103D8000BF91AF919F918F911F901FBE1F9018956B
:103D90000E94BE26F8942FEF87EA91E621508040DA
:103DA0009040E1F700C0000087E090EBDC018093D9
:103DB000980290939902A0939A02B0939B0288E193
:103DC0009CE00FB6F894A895809360000FBE909386
:103DD0006000FFCFAF92BF92CF92DF92EF92FF923F
:103DE0000F931F93CF93C0E0AA24A394B12CE82E85
:103DF000F12C8C2F0E94F30B6C0110E000E0C50148
:103E0000002E02C0880F991F0A94E2F78C219D2191
:103E1000892B99F0602F7C2F80E00E945F08E816C4
:103E2000F90659F481E0CF911F910F91FF90EF9027
:103E3000DF90CF90BF90AF9008950F5F1F4F0E306F
:103E40001105E9F6CF5FC530A1F680E0ECCFCF9346
:103E5000C82F8CE20E94EA1E882321F08C2FCF917C
:103E60000C94EA1E80E0CF910895CF93DF9300D0A9
:103E700000D0CDB7DEB70E94D51D811102C00E94CF
:103E8000B41D95E6998308C00E94260B8FE39CE938
:103E90000197F1F700C00000A981A150A983A111E9
:103EA000F3CF89E20E94271F811110C18AE20E948C
:103EB000271F81110E94B41D85E00E94271F8111D8
:103EC0000E94C81E0E94E01D8093200287E00E948D
:103ED000271F882371F08BE10E94271F882309F494
:103EE000D1C090912002892F8D7F91FF82608093B5
:103EF0002002809120020E94E41D0E94F21D90E0A9
:103F000090938A028093890280EE0E94271F882363
:103F100041F090918902892F8E7F90FF816080937C
:103F2000890289E30E94271F882341F0909189022A
:103F3000892F8D7F91FF82608093890282EE0E949B
:103F4000271F882341F090918902892F8B7F92FF50
:103F500084608093890286EE0E94271F882341F0A7
:103F600090918902892F877F93FF886080938902CF
:103F700083EE0E94271F882341F090918902892FA8
:103F80008F7E94FF80618093890285E30E94271FC2
:103F9000882341F090918902892F8F7D95FF80625F
:103FA0008093890281E30E94271F882341F090912A
:103FB0008902892F8F7B96FF80648093890281E13B
:103FC0000E94271F882341F090918902892F97FB37
:103FD00087F9805880938902809189020E94F61D9A
:103FE00087E20E94271F89838EE10E94271F882372
:103FF00019F0B981B260B9838FE10E94271F88232D
:1040000019F029812460298380E20E94271F8823D8
:1040100019F039813860398381E20E94271F882393
:1040200019F049814061498382E20E94271F882359
:1040300019F059815062598383E20E94271F882317
:1040400019F089818064898384E20E94271F882374
:10405000B1F199819068998389810E94ED1D398120
:10406000232F30E050E040E029833A834B835C8388
:10407000CA01B9010F900F900F900F90DF91CF916F
:104080000C942D1A8EE00E94271F882339F09091FE
:104090002002892F8B7F92FF846029CF80E10E94CC
:1040A000271F90912002882329F0892F877F93FF73
:1040B00088601DCF892F8E7F90FF816018CFA981E6
:1040C000A111CACF0E94E91D282FCBCF0F900F90CE
:1040D0000F900F90DF91CF9108958091240280FF7F
:1040E00012C06091060185E0689FB00111247595AA
:1040F00067957595679560387105A8F56115710527
:10410000A1F1862F089581FF09C06091060185E025
:10411000689FB001112475956795EDCF60910601F8
:1041200082FD0AC0809125028823D1F0909105017B
:1041300060910601891728F085E0689FB00111247D
:10414000DACF869FB001112485E0869F9001879F7A
:10415000300D1124692F70E0C9010E94FB2ACBCFDA
:1041600065E070E0CECF8FE7089581E008958091FB
:10417000240280FF0CC06091040170E07595679582
:10418000759567956115710549F1862F089581FF31
:1041900006C06091040170E075956795F3CF60915A
:1041A000040182FD0BC0909125029923A1F060913A
:1041B000030180910401961738F0682F70E0603891
:1041C000710500F38FE70895899FC001112470E005
:1041D0000E94FB2AF4CF61E070E0D7CF81E0089520
:1041E000803F31F40E946D208195809328020895CC
:1041F000813F19F40E946D20F8CF823F31F40E9474
:104200006D208195809327020895833F19F40E94C1
:104210006D20F8CF893F29F40E94B72080932902AE
:1042200008958A3F21F40E94B7208195F7CF8B3FF4
:1042300031F40E94B720819580932A0208958C3F23
:1042400019F40E94B720F8CF843F31F48091260200
:104250008160809326020895853F21F48091260293
:104260008260F7CF863F21F4809126028460F1CFEF
:10427000873F21F4809126028860EBCF883F21F4AC
:10428000809126028061E5CF8D3F31F48091240238
:1042900081608093240208958E3F21F4809124024E
:1042A0008260F7CF8F3FB9F7809124028460F1CF0D
:1042B00090912702803F41F48091280287FD10925F
:1042C0002802992371F00895813F29F480912802F2
:1042D0001816ACF3F6CF823F81F497FFF2CF10921D
:1042E00027028091280290912902892B90912A021D
:1042F000892B49F7109225020895833F19F4191666
:1043000074F3DFCF893F39F4809129021816CCF677
:1043100010922902D6CF8A3F29F48091290287FF83
:10432000D0CFF6CF8B3F39F480912A0287FFC9CFD7
:1043300010922A02C6CF8C3F29F480912A021816C7
:10434000BCF3BFCF843F31F4809126028E7F8093EF
:104350002602B7CF853F21F4809126028D7FF7CFCB
:10436000863F21F4809126028B7FF1CF873F21F495
:1043700080912602877FEBCF883F21F4809126022F
:104380008F7EE5CF8D3F31F4809124028E7F809324
:10439000240297CF8E3F21F4809124028D7FF7CFA6
:1043A0008F3F09F08ECF809124028B7FF0CF86E281
:1043B00092E00E94A8110E94741E909323028093A1
:1043C000220208951F93CF93DF9300D000D000D036
:1043D000CDB7DEB780912202909123020E94801E09
:1043E000AC01809125022091070130E0811106C0C7
:1043F000209108019AE0299F900111244217530748
:1044000088F020912702A0912802A9831091290207
:10441000B0912A02BE8321110FC09A2F912B9B2BA2
:1044200009F0B2C026960FB6F894DEBF0FBECDBF1E
:10443000DF91CF911F9108958F3F19F08F5F809387
:104440002502121624F40E946D2080932702809189
:10445000270287FF05C00E946D2081958093270267
:104460002981121624F40E946D20809328028091E5
:10447000280287FF05C00E946D2081958093280245
:1044800080912702882309F455C0309128023D838A
:10449000332309F44FC0282F880F330B440B550BDF
:1044A00029833A834B835C83CA01B9010E94EE29B8
:1044B00023E333E343E35FE369837A838B839C8362
:1044C00069817A818B819C810E94522A69837A83D7
:1044D0008B839C8369817A818B819C810E94B62920
:1044E000609327028D81082E000C990BAA0BBB0B41
:1044F00089839A83AB83BC83BC01CD010E94EE29E2
:1045000023E333E343E35FE369837A838B839C8311
:1045100069817A818B819C810E94522A69837A8386
:104520008B839C8369817A818B819C810E94B629CF
:1045300060932802111624F40E94B7208093290268
:104540008091290287FF05C00E94B7208195809342
:1045500029029E81191624F40E94B72080932A0212
:1045600080912A0287FF05C00E94B7208195809321
:104570002A0226960FB6F894DEBF0FBECDBFDF919C
:10458000CF911F910C94D7218F3F09F057CF68CF5F
:1045900085E0E6E2F2E0DF011D928A95E9F71092EC
:1045A000250210922402089580914B020895CF9322
:1045B000DF9300D00F92CDB7DEB720918F02243069
:1045C00019F523E029838A839B832093E9008FEFE9
:1045D0009091E800815095FD06C095ED9A95F1F710
:1045E00000008111F5CF8091E80085FF0DC050E0FB
:1045F00040E063E070E0CE0101960E943625809194
:10460000E8008E778093E8000F900F900F90DF9175
:10461000CF910895CF93DF9300D00F92CDB7DEB73F
:104620009C0180918F02843031F582E0898320588B
:1046300031093B832A8383E08093E9008FEF9091D7
:10464000E800815095FD06C095ED9A95F1F70000C0
:104650008111F5CF8091E80085FF0DC050E040E06A
:1046600063E070E0CE0101960E9436258091E8005B
:104670008E778093E8000F900F900F90DF91CF918D
:10468000089520918F022430F1F422E02093E90074
:104690002FEF3091E800215035FD06C035ED3A95F9
:1046A000F1F700002111F5CF2091E80025FF0BC0A4
:1046B00050E040E065E070E00E9436258091E8001F
:1046C0008E778093E8000895CF93DF93D82FC92F7A
:1046D00080918F028430F1F4909113019923E9F0D5
:1046E0009091890297FF19C08093E9008FEF909114
:1046F000E800815095FD06C095E19A95F1F700001C
:104700008111F5CF8091E80050E040E060E270E078
:1047100085FD1AC0DF91CF91089581E08093E90073
:104720008FEF9091E800815095FD06C095ED9A9528
:10473000F1F700008111F5CF8091E80085FFEACF05
:1047400050E040E068E070E08D2F9C2F0E943625FD
:104750008091E8008E778093E80080E2ED2FFC2FB7
:10476000ABE2B2E001900D928A95E1F7D3CF809150
:104770008E02811109C00E94BE260E941B278091D3
:10478000E20084608093E200089510928E02089502
:10479000089508950C943E1E42E061EC81E00E9471
:1047A0003A2642E061EC82E00E943A2642E061EC67
:1047B00083E00E943A2642E261EC84E00C943A26BF
:1047C00080919102893089F148F4823009F494C0D3
:1047D000833009F44FC0813041F008958A3009F4E4
:1047E0007BC08B3009F461C0089580919002813ABA
:1047F00009F03FC08091E800877F8093E8008091B6
:10480000940290919502892B61F460E28BE292E030
:1048100070E00E9485258091E8008B778093E80006
:10482000089560E090E080E0F3CF809190028132C3
:1048300001F58091940290919502009711F00397F1
:10484000C1F48091E800877F8093E8008091E800C0
:1048500082FF0BC08091F10080934B028091E800B1
:104860008B778093E8000C946E2680918F028111E3
:10487000EDCF089580919002813AD9F7809194020A
:1048800090919502892BA9F78091E800877F80930A
:10489000E8008091E80080FFFCCF809113018093B5
:1048A000F1008091E8008E77DCCF80919002813218
:1048B00001F78091940290919502892BD1F6809115
:1048C000E800877F8093E8000E946E268091920224
:1048D000809313010C948E1680919002813249F6D8
:1048E0008091E800877F8093E8000E946E26809187
:1048F000930280934C02089580919002813A09F0CE
:10490000B8CF8091E800877F8093E8008091E8002D
:1049100080FFFCCF80914C02C2CF84B7877F84BFD9
:104920000FB6F894A895809160008861809360002C
:10493000109260000FBE80E88093610010926100C9
:104940000E94E0110E94BE260E941B278091E20077
:1049500084608093E20078940E949B290E94E21177
:1049600089E091E00E948C1180918F02853029F0BE
:104970000E94EA110E945911F7CF0E94FB1D8091FD
:104980008D02882389F30E94291E882369F30E94DF
:104990002025EACF9C01DA01892F992783309105E0
:1049A000C1F068F48130910509F445C0029761F4C3
:1049B0008DE690E029EA3BE02D933C930895813207
:1049C0009105E1F0829739F190E080E030E020E05D
:1049D000F3CFC9019927213059F08230910559F060
:1049E000E5EAFBE0892B81F7849190E09F01E4CF19
:1049F000EDE8FBE0F9CFE9E7FBE0F6CF643020F724
:104A0000E62FF0E0EE0FFF1FED5CFE4F20813181BD
:104A100089E090E0D1CF6430B8F670E0FB01EE0F92
:104A2000FF1FE55DFE4F20813181695D7E4FFB01F7
:104A3000808190E0C1CF82E190E026E13CE0BCCFF4
:104A400080E189BD82E189BD09B400FEFDCF80917E
:104A5000D8008F7D8093D8008091E00082608093A1
:104A6000E0008091E00081FDFCCF0895AF92BF92FD
:104A7000CF92DF92FF920F931F93CF93DF936C013E
:104A8000EB018A010E948D26F82E811123C00115A9
:104A9000110539F0F80180819181C81BD90BC80E2E
:104AA000D91EB12CA12C2097A9F08091E80085FD9A
:104AB00022C08091E8008E778093E80001151105EF
:104AC000A1F0F80180819181A80EB91EB182A08267
:104AD00085E0F82E8F2DDF91CF911F910F91FF90E0
:104AE000DF90CF90BF90AF9008950E948D268823CD
:104AF000D1F2F82EEFCFF60181916F018093F10092
:104B00002197FFEFAF1ABF0ACECFFC01CB01209156
:104B10009602309197022617370790F0009729F4F4
:104B20002091E8002E772093E80040E0009751F4B0
:104B3000411108C08091E80082FF31C080E00895F3
:104B4000C901F3CF20918F022223A9F12530A9F1C9
:104B50002091E80023FD2DC02091E80022FDEACF3E
:104B60002091E80020FFE2CF3091F3002091F20085
:104B7000009719F02830310558F041E02830310510
:104B800009F040E02091E8002E772093E800CECF96
:104B900041914093F10001972F5F3F4FE9CF809102
:104BA0008F02882341F0853041F08091E80083FF37
:104BB000C1CF81E0089582E0089583E00895FC016B
:104BC000CB0120919602309197022617370790F07B
:104BD000009729F42091E8002E772093E80040E028
:104BE000009751F4411108C08091E80082FF32C063
:104BF00080E00895C901F3CF20918F022223B1F103
:104C00002530B1F12091E80023FD2EC02091E8006D
:104C100022FDEACF2091E80020FFE2CF3091F3009F
:104C20002091F200009719F02830310558F041E04A
:104C30002830310509F040E02091E8002E772093DC
:104C4000E800CECF44914093F100319601972F5F59
:104C50003F4FE8CF80918F02882341F0853041F0AB
:104C60008091E80083FFC0CF81E0089582E008953D
:104C700083E00895982F973028F08F708093E90093
:104C800081E008959093E900242F762F50E0981743
:104C900031F07091EC002091ED005091F00021FD79
:104CA00002C09F5FE8CF3091EB003E7F3093EB0076
:104CB0003091ED003D7F3093ED003091EB0031609D
:104CC0003093EB007093EC002093ED005093F000D4
:104CD0002091EE0027FDE5CF80E0089580919002BD
:104CE00087FF13C08091E80082FF06C08091E80032
:104CF0008B778093E80004C080918F028111F2CFFE
:104D0000089580918F028823D9F38091E80080FF75
:104D1000F8CF8091E8008E77ECCF2091E4003091BD
:104D2000E50095E6A9012091EC00822F817020FF1B
:104D300006C08091E80080FF06C080E008952091C1
:104D4000E80022FD1AC080918F02882389F0853007
:104D500089F08091EB0085FD0FC02091E400309137
:104D6000E50042175307F9F29150E1F684E0089507
:104D700082E0089583E0089581E008950E942C2741
:104D80000E943427E0EEF0E0808181608083E8EDCE
:104D9000F0E080818F77808319BCA7EDB0E08C9123
:104DA0008E7F8C9380818F7E808310928E020895F7
:104DB0000F931F93CF93DF930E942C270E943427D9
:104DC000C8EDD0E088818F77888388818068888368
:104DD00088818F7D888319BC10928F0210928B027C
:104DE00010928D0210928C0200EE10E0F80180818A
:104DF0008B7F808388818160888342E060E080E0EF
:104E00000E943A26E1EEF0E080818E7F8083E2EE20
:104E1000F0E0808181608083808188608083F801F8
:104E200080818E7F8083888180618883DF91CF91AC
:104E30001F910F910895E8EDF0E080818F7E8083CF
:104E4000E7EDF0E080818160808384E082BF81E0D3
:104E500080938E020C94D826E8EDF0E080818E7F5E
:104E600080831092E20008951092DA001092E1001F
:104E700008951F920F920FB60F9211242F933F9314
:104E80004F935F936F937F938F939F93AF93BF9352
:104E9000EF93FF938091E10082FF0BC08091E200CD
:104EA00082FF07C08091E1008B7F8093E1000E9428
:104EB0009A298091DA0080FF19C08091D80080FF84
:104EC00015C08091DA008E7F8093DA008091D9003E
:104ED00080FF94C080E189BD82E189BD09B400FEF4
:104EE000FDCF81E080938F020E94B7238091E10083
:104EF00080FF19C08091E20080FF15C08091E20020
:104F00008E7F8093E2008091E20080618093E200D6
:104F10008091D80080628093D80019BC85E080938E
:104F20008F020E94C9238091E10084FF29C08091F3
:104F3000E20084FF25C080E189BD82E189BD09B41A
:104F400000FEFDCF8091D8008F7D8093D8008091A6
:104F5000E1008F7E8093E1008091E2008F7E80935C
:104F6000E2008091E20081608093E20080918B02F8
:104F7000882309F449C084E080938F020E94CA23E9
:104F80008091E10083FF29C08091E20083FF25C06A
:104F90008091E100877F8093E10082E080938F021F
:104FA00010928B028091E1008E7F8093E1008091CE
:104FB000E2008E7F8093E2008091E2008061809326
:104FC000E20042E060E080E00E943A268091F0003A
:104FD00088608093F0000E94C823FF91EF91BF91F9
:104FE000AF919F918F917F916F915F914F913F9181
:104FF0002F910F900FBE0F901F90189519BC109213
:105000008F020E94C52372CF8091E30087FD02C00A
:1050100081E0B2CF83E0B0CF1F920F920FB60F9214
:1050200011242F933F934F935F936F937F938F93AD
:105030009F93AF93BF93CF93DF93EF93FF93D09161
:10504000E900DF708091EC00C82FC17080FDC0E8DE
:105050001092E9008091F000877F8093F0007894AF
:105060000E9450281092E9008091F000886080939F
:10507000F000CD2BCF70C093E900FF91EF91DF914D
:10508000CF91BF91AF919F918F917F916F915F91E0
:105090004F913F912F910F900FBE0F901F90189539
:1050A0001F93CF93DF93CDB7DEB7AA970FB6F894CF
:1050B000DEBF0FBECDBF80E992E0FC0101962091DA
:1050C000F100208322E088399207B9F70E94E0239B
:1050D0008091E80083FF16C1809190029091910227
:1050E0009A3008F00FC1E92FF0E0E657F44D0C9428
:1050F0000F2B803881F0823809F004C1809194022E
:105100008F708093E9008091EB0085FB882780F900
:105110001092E90006C080918C0290918D0291114D
:1051200082609091E800977F9093E8008093F1006F
:105130001092F1008091E8008E77E0C0882309F496
:10514000CEC0823009F0DEC0809192028111D1C0C0
:10515000809194028F7009F4D5C08093E90020916A
:10516000EB0020FFC6C0933031F48091EB008062E9
:105170008093EB00BEC09091EB0090619093EB00A8
:1051800021E030E001C0220F8A95EAF72093EA007F
:105190001092EA008091EB008860EACF8111B2C0E2
:1051A000109192021F778091E3008078812B809389
:1051B000E3008091E800877F8093E8000E946E26DC
:1051C0008091E80080FFFCCF8091E30080688093AD
:1051D000E30082E0111183E080938F0293C0805836
:1051E000823008F08FC080919202909193028C3DA2
:1051F00023E09207A1F583E08A838AE289834FB78F
:10520000F894DE01139620E03EE051E2E32FF0E057
:1052100050935700E49120FF03C0E295EF703F5F89
:10522000EF708E2F90E0EA30C0F0C7968D939D937B
:105230002F5F243159F74FBF8091E800877F80931B
:10524000E8006AE270E0CE0101960E948525809117
:10525000E8008B778093E80055C0C096E7CFAE0199
:105260004F5F5F4F609194020E94CA24BC01892B5A
:1052700009F448C08091E800877F8093E800898125
:105280009A810E94DF25E3CF8038E1F58091E80024
:10529000877F8093E80080918B028093F1004ACF52
:1052A000811130C090919202923060F58091E800B7
:1052B000877F8093E80090938B020E946E268091F6
:1052C0008B02882311F084E005C08091E30087FD04
:1052D000FACF81E080938F020E94CC2313C080918B
:1052E0009202813079F481E0933009F080E080937C
:1052F0008D021092E9008091E800877F8093E8009A
:105300000E946E268091E80083FF0AC08091E80029
:10531000877F8093E8008091EB0080628093EB00B0
:10532000AA960FB6F894DEBF0FBECDBFDF91CF9126
:105330001F9108950895CF9380918F028823A1F043
:10534000C091E900CF709091EC00892F817090FDA1
:1053500080E8C82B1092E9008091E80083FD0E944C
:105360005028CF70C093E900CF9108950E94BD29C5
:105370006894B1110C944C2A08950E94312A88F047
:105380009F5798F0B92F9927B751B0F0E1F0660F09
:10539000771F881F991F1AF0BA95C9F714C0B1304A
:1053A00091F00E944B2AB1E008950C944B2A672F8C
:1053B000782F8827B85F39F0B93FCCF38695779579
:1053C0006795B395D9F73EF4909580957095619562
:1053D0007F4F8F4F9F4F0895E89409C097FB3EF48D
:1053E00090958095709561957F4F8F4F9F4F992332
:1053F000A9F0F92F96E9BB279395F69587957795B0
:105400006795B795F111F8CFFAF4BB0F11F460FF6F
:105410001BC06F5F7F4F8F4F9F4F16C0882311F0C7
:1054200096E911C0772321F09EE8872F762F05C0DB
:10543000662371F096E8862F70E060E02AF09A9576
:10544000660F771F881FDAF7880F9695879597F96B
:10545000089557FD9058440F551F59F05F3F71F064
:105460004795880F97FB991F61F09F3F79F08795CB
:105470000895121613061406551FF2CF4695F1DF54
:1054800008C0161617061806991FF1CF86957105E4
:10549000610508940895E894BB2766277727CB0118
:1054A00097F908950E94652A0C94D62A0E94C82A6A
:1054B00038F00E94CF2A20F0952311F00C94BF2AD7
:1054C0000C94C52A11240C944C2A0E94292A70F3AA
:1054D000959FC1F3950F50E0551F629FF001729F99
:1054E000BB27F00DB11D639FAA27F00DB11DAA1FA8
:1054F000649F6627B00DA11D661F829F2227B00DF5
:10550000A11D621F739FB00DA11D621F839FA00D7F
:10551000611D221F749F3327A00D611D231F849FCF
:10552000600D211D822F762F6A2F11249F57504026
:105530009AF0F1F088234AF0EE0FFF1FBB1F661FA1
:10554000771F881F91505040A9F79E3F510580F06A
:105550000C94BF2A0C944C2A5F3FE4F3983ED4F39A
:10556000869577956795B795F795E7959F5FC1F70E
:10557000FE2B880F911D9695879597F9089597F9B9
:105580009F6780E870E060E008959FEF80EC0895E9
:1055900000240A9416161706180609060895002412
:1055A0000A9412161306140605060895092E03948C
:1055B000000C11F4882352F0BB0F40F4BF2B11F400
:1055C00060FF04C06F5F7F4F8F4F9F4F0895AA1BEE
:1055D000BB1B51E107C0AA1FBB1FA617B70710F0DE
:1055E000A61BB70B881F991F5A95A9F78095909510
:1055F000BC01CD01089597FB072E16F4009407D047
:1056000077FD09D00E94E72A07FC05D03EF490956B
:1056100081959F4F0895709561957F4F0895EE0F86
:10562000FF1F0590F491E02D0994F999FECF92BDEA
:1056300081BDF89A992780B50895A6E1B0E044E0CD
:1056400050E00C944F2BA8E1B0E042E050E00C9405
:105650004F2B262FF999FECF92BD81BDF89A019765
:1056600000B4021639F01FBA20BD0FB6F894FA9AAA
:10567000F99A0FBE08950396272F0E942A2B0E94A5
:10568000292B252F0E942A2B242F0C942A2B01969C
:10569000272F0E942A2B0C94292BDC01CB01FC0123
:1056A000F999FECF06C0F2BDE1BDF89A319600B47B
:1056B0000D9241505040B8F70895F894FFCF9A07E3
:1056C0009F07A407A907AE07B307B8071008350856
:1056D000BD07C907CD07D107D507D907DD07E10702
:1056E000E507E907ED07F107F507F907FD070108E9
:1056F000050809083914391491149114D514F114BA
:1057000069146914FC146914C415C4152F1669149E
:105710006914381679289E2882299E288229CE2845
:08572000EF28822944295029D9
:10572800FFFD012808140A321ED422642341230AEB
:1057380023D72201353637909192939495969766A0
:1057480067F73031323334404D3639E40C970C6109
:0C5758000C280CBB0BD40BED0B060C0056
:00000001FF
